{
  "_format": "hh-sol-artifact-1",
  "contractName": "Todo",
  "sourceName": "contracts/todo.sol",
  "abi": [
    {
      "anonymous": false,
      "inputs": [
        {
          "indexed": false,
          "internalType": "address",
          "name": "recipient",
          "type": "address"
        },
        {
          "indexed": false,
          "internalType": "uint256",
          "name": "taskId",
          "type": "uint256"
        }
      ],
      "name": "AddTodo",
      "type": "event"
    },
    {
      "anonymous": false,
      "inputs": [
        {
          "indexed": false,
          "internalType": "uint256",
          "name": "taskId",
          "type": "uint256"
        },
        {
          "indexed": false,
          "internalType": "bool",
          "name": "isDeleted",
          "type": "bool"
        }
      ],
      "name": "CompletedTodo",
      "type": "event"
    },
    {
      "anonymous": false,
      "inputs": [
        {
          "indexed": false,
          "internalType": "uint256",
          "name": "taskId",
          "type": "uint256"
        },
        {
          "indexed": false,
          "internalType": "bool",
          "name": "isDeleted",
          "type": "bool"
        }
      ],
      "name": "DeleteTodo",
      "type": "event"
    },
    {
      "inputs": [
        {
          "internalType": "string",
          "name": "description",
          "type": "string"
        },
        {
          "internalType": "bool",
          "name": "isDeleted",
          "type": "bool"
        }
      ],
      "name": "addTodo",
      "outputs": [],
      "stateMutability": "nonpayable",
      "type": "function"
    },
    {
      "inputs": [
        {
          "internalType": "uint256",
          "name": "todoId",
          "type": "uint256"
        },
        {
          "internalType": "bool",
          "name": "isDeleted",
          "type": "bool"
        }
      ],
      "name": "deleteTodo",
      "outputs": [],
      "stateMutability": "nonpayable",
      "type": "function"
    },
    {
      "inputs": [],
      "name": "getTodos",
      "outputs": [
        {
          "components": [
            {
              "internalType": "uint256",
              "name": "id",
              "type": "uint256"
            },
            {
              "internalType": "string",
              "name": "description",
              "type": "string"
            },
            {
              "internalType": "bool",
              "name": "isDeleted",
              "type": "bool"
            },
            {
              "internalType": "bool",
              "name": "isCompleted",
              "type": "bool"
            }
          ],
          "internalType": "struct Todo.Todos[]",
          "name": "",
          "type": "tuple[]"
        }
      ],
      "stateMutability": "view",
      "type": "function"
    },
    {
      "inputs": [
        {
          "internalType": "uint256",
          "name": "todoId",
          "type": "uint256"
        },
        {
          "internalType": "bool",
          "name": "isCompleted",
          "type": "bool"
        }
      ],
      "name": "setTodoAsComplete",
      "outputs": [],
      "stateMutability": "nonpayable",
      "type": "function"
    }
  ],
  "bytecode": "0x608060405234801561001057600080fd5b50610eed806100206000396000f3fe608060405234801561001057600080fd5b506004361061004b5760003560e01c8062ee4e6b146100505780637205351c1461006c578063a0cc2a5614610088578063c33926cb146100a4575b600080fd5b61006a600480360381019061006591906108b2565b6100c2565b005b610086600480360381019061008191906108b2565b6101df565b005b6100a2600480360381019061009d9190610a38565b6102fc565b005b6100ac610450565b6040516100b99190610c5f565b60405180910390f35b813373ffffffffffffffffffffffffffffffffffffffff166001600083815260200190815260200160002060009054906101000a900473ffffffffffffffffffffffffffffffffffffffff1673ffffffffffffffffffffffffffffffffffffffff1614610164576040517f08c379a000000000000000000000000000000000000000000000000000000000815260040161015b90610cde565b60405180910390fd5b816000848154811061017957610178610cfe565b5b906000526020600020906003020160020160016101000a81548160ff0219169083151502179055507f1e412bdd6132f57e241dfc1dfe34aa85f7a5c0a610fbca969a06a9d4502178cd83836040516101d2929190610d4b565b60405180910390a1505050565b813373ffffffffffffffffffffffffffffffffffffffff166001600083815260200190815260200160002060009054906101000a900473ffffffffffffffffffffffffffffffffffffffff1673ffffffffffffffffffffffffffffffffffffffff1614610281576040517f08c379a000000000000000000000000000000000000000000000000000000000815260040161027890610cde565b60405180910390fd5b816000848154811061029657610295610cfe565b5b906000526020600020906003020160020160006101000a81548160ff0219169083151502179055507f4d3f78f0596d39b555572af3b3508d43d776242a1b22c87f97fa71f13e9b2caa83836040516102ef929190610d4b565b60405180910390a1505050565b60008080805490509050600060405180608001604052808381526020018681526020018515158152602001841515815250908060018154018082558091505060019003906000526020600020906003020160009091909190915060008201518160000155602082015181600101908051906020019061037c929190610761565b5060408201518160020160006101000a81548160ff02191690831515021790555060608201518160020160016101000a81548160ff0219169083151502179055505050336001600083815260200190815260200160002060006101000a81548173ffffffffffffffffffffffffffffffffffffffff021916908373ffffffffffffffffffffffffffffffffffffffff1602179055507feb2fbc651194cbec6fe990857b04243a010e3e05d12441e94a73f3dddb1129d53382604051610442929190610db5565b60405180910390a150505050565b60606000808054905067ffffffffffffffff8111156104725761047161090d565b5b6040519080825280602002602001820160405280156104ab57816020015b6104986107e7565b8152602001906001900390816104905790505b5090506000805b6000805490508110156106a7573373ffffffffffffffffffffffffffffffffffffffff166001600083815260200190815260200160002060009054906101000a900473ffffffffffffffffffffffffffffffffffffffff1673ffffffffffffffffffffffffffffffffffffffff16148015610563575060001515600082815481106105405761053f610cfe565b5b906000526020600020906003020160020160009054906101000a900460ff161515145b15610694576000818154811061057c5761057b610cfe565b5b9060005260206000209060030201604051806080016040529081600082015481526020016001820180546105af90610e0d565b80601f01602080910402602001604051908101604052809291908181526020018280546105db90610e0d565b80156106285780601f106105fd57610100808354040283529160200191610628565b820191906000526020600020905b81548152906001019060200180831161060b57829003601f168201915b505050505081526020016002820160009054906101000a900460ff161515151581526020016002820160019054906101000a900460ff16151515158152505083838151811061067a57610679610cfe565b5b6020026020010181905250818061069090610e6e565b9250505b808061069f90610e6e565b9150506104b2565b5060008167ffffffffffffffff8111156106c4576106c361090d565b5b6040519080825280602002602001820160405280156106fd57816020015b6106ea6107e7565b8152602001906001900390816106e25790505b50905060005b828110156107575783818151811061071e5761071d610cfe565b5b602002602001015182828151811061073957610738610cfe565b5b6020026020010181905250808061074f90610e6e565b915050610703565b5080935050505090565b82805461076d90610e0d565b90600052602060002090601f01602090048101928261078f57600085556107d6565b82601f106107a857805160ff19168380011785556107d6565b828001600101855582156107d6579182015b828111156107d55782518255916020019190600101906107ba565b5b5090506107e39190610813565b5090565b604051806080016040528060008152602001606081526020016000151581526020016000151581525090565b5b8082111561082c576000816000905550600101610814565b5090565b6000604051905090565b600080fd5b600080fd5b6000819050919050565b61085781610844565b811461086257600080fd5b50565b6000813590506108748161084e565b92915050565b60008115159050919050565b61088f8161087a565b811461089a57600080fd5b50565b6000813590506108ac81610886565b92915050565b600080604083850312156108c9576108c861083a565b5b60006108d785828601610865565b92505060206108e88582860161089d565b9150509250929050565b600080fd5b600080fd5b6000601f19601f8301169050919050565b7f4e487b7100000000000000000000000000000000000000000000000000000000600052604160045260246000fd5b610945826108fc565b810181811067ffffffffffffffff821117156109645761096361090d565b5b80604052505050565b6000610977610830565b9050610983828261093c565b919050565b600067ffffffffffffffff8211156109a3576109a261090d565b5b6109ac826108fc565b9050602081019050919050565b82818337600083830152505050565b60006109db6109d684610988565b61096d565b9050828152602081018484840111156109f7576109f66108f7565b5b610a028482856109b9565b509392505050565b600082601f830112610a1f57610a1e6108f2565b5b8135610a2f8482602086016109c8565b91505092915050565b60008060408385031215610a4f57610a4e61083a565b5b600083013567ffffffffffffffff811115610a6d57610a6c61083f565b5b610a7985828601610a0a565b9250506020610a8a8582860161089d565b9150509250929050565b600081519050919050565b600082825260208201905092915050565b6000819050602082019050919050565b610ac981610844565b82525050565b600081519050919050565b600082825260208201905092915050565b60005b83811015610b09578082015181840152602081019050610aee565b83811115610b18576000848401525b50505050565b6000610b2982610acf565b610b338185610ada565b9350610b43818560208601610aeb565b610b4c816108fc565b840191505092915050565b610b608161087a565b82525050565b6000608083016000830151610b7e6000860182610ac0565b5060208301518482036020860152610b968282610b1e565b9150506040830151610bab6040860182610b57565b506060830151610bbe6060860182610b57565b508091505092915050565b6000610bd58383610b66565b905092915050565b6000602082019050919050565b6000610bf582610a94565b610bff8185610a9f565b935083602082028501610c1185610ab0565b8060005b85811015610c4d5784840389528151610c2e8582610bc9565b9450610c3983610bdd565b925060208a01995050600181019050610c15565b50829750879550505050505092915050565b60006020820190508181036000830152610c798184610bea565b905092915050565b600082825260208201905092915050565b7f6f6e6c79206f776e65722063616e2064656c65746520746f646f000000000000600082015250565b6000610cc8601a83610c81565b9150610cd382610c92565b602082019050919050565b60006020820190508181036000830152610cf781610cbb565b9050919050565b7f4e487b7100000000000000000000000000000000000000000000000000000000600052603260045260246000fd5b610d3681610844565b82525050565b610d458161087a565b82525050565b6000604082019050610d606000830185610d2d565b610d6d6020830184610d3c565b9392505050565b600073ffffffffffffffffffffffffffffffffffffffff82169050919050565b6000610d9f82610d74565b9050919050565b610daf81610d94565b82525050565b6000604082019050610dca6000830185610da6565b610dd76020830184610d2d565b9392505050565b7f4e487b7100000000000000000000000000000000000000000000000000000000600052602260045260246000fd5b60006002820490506001821680610e2557607f821691505b60208210811415610e3957610e38610dde565b5b50919050565b7f4e487b7100000000000000000000000000000000000000000000000000000000600052601160045260246000fd5b6000610e7982610844565b91507fffffffffffffffffffffffffffffffffffffffffffffffffffffffffffffffff821415610eac57610eab610e3f565b5b60018201905091905056fea264697066735822122075be90ed5569eb77a49f5dab4d81ff960bda75875e49264b67b7c37cde13470a64736f6c63430008090033",
  "linkReferences": {},
  "deployedLinkReferences": {}
}